{
  "contractName": "SimpleStorage",
  "abi": [
    {
      "inputs": [],
      "name": "get_total_unsold_product",
      "outputs": [
        {
          "internalType": "uint256",
          "name": "",
          "type": "uint256"
        }
      ],
      "stateMutability": "view",
      "type": "function",
      "constant": true
    },
    {
      "inputs": [],
      "name": "get_total_sold_product",
      "outputs": [
        {
          "internalType": "uint256",
          "name": "",
          "type": "uint256"
        }
      ],
      "stateMutability": "view",
      "type": "function",
      "constant": true
    },
    {
      "inputs": [
        {
          "internalType": "string",
          "name": "productid",
          "type": "string"
        },
        {
          "internalType": "string",
          "name": "_name",
          "type": "string"
        },
        {
          "internalType": "uint256",
          "name": "_mobile",
          "type": "uint256"
        },
        {
          "internalType": "string",
          "name": "_email",
          "type": "string"
        }
      ],
      "name": "set_new_product",
      "outputs": [],
      "stateMutability": "nonpayable",
      "type": "function"
    },
    {
      "inputs": [
        {
          "internalType": "string",
          "name": "productid",
          "type": "string"
        },
        {
          "internalType": "uint256",
          "name": "warr_end",
          "type": "uint256"
        }
      ],
      "name": "set_warranty",
      "outputs": [],
      "stateMutability": "nonpayable",
      "type": "function"
    },
    {
      "inputs": [
        {
          "internalType": "string",
          "name": "id",
          "type": "string"
        }
      ],
      "name": "get_product_details",
      "outputs": [
        {
          "components": [
            {
              "internalType": "string",
              "name": "name",
              "type": "string"
            },
            {
              "internalType": "uint256",
              "name": "mobile",
              "type": "uint256"
            },
            {
              "internalType": "string",
              "name": "email",
              "type": "string"
            },
            {
              "internalType": "uint256",
              "name": "manu_date",
              "type": "uint256"
            },
            {
              "internalType": "uint256",
              "name": "warranty_start",
              "type": "uint256"
            },
            {
              "internalType": "uint256",
              "name": "warranty_end",
              "type": "uint256"
            }
          ],
          "internalType": "struct SimpleStorage.data",
          "name": "",
          "type": "tuple"
        }
      ],
      "stateMutability": "view",
      "type": "function",
      "constant": true
    }
  ],
  "bytecode": "0x60806040526107e660025534801561001657600080fd5b50610da5806100266000396000f3fe608060405234801561001057600080fd5b50600436106100575760003560e01c80633054c3d31461005c578063b48cd9ad1461008c578063bf89d2a8146100aa578063d106eab6146100c6578063d34fa4a2146100e2575b600080fd5b610076600480360381019061007191906107a3565b610100565b604051610083919061091d565b60405180910390f35b61009461031a565b6040516100a1919061094e565b60405180910390f35b6100c460048036038101906100bf9190610995565b610323565b005b6100e060048036038101906100db91906109f1565b610401565b005b6100ea610566565b6040516100f7919061094e565b60405180910390f35b610108610570565b60006003600060025481526020019081526020016000208360405161012d9190610ae8565b9081526020016040518091039020600001805461014990610b2e565b90500361018b576040517f08c379a000000000000000000000000000000000000000000000000000000000815260040161018290610bbc565b60405180910390fd5b600360006002548152602001908152602001600020826040516101ae9190610ae8565b90815260200160405180910390206040518060c00160405290816000820180546101d790610b2e565b80601f016020809104026020016040519081016040528092919081815260200182805461020390610b2e565b80156102505780601f1061022557610100808354040283529160200191610250565b820191906000526020600020905b81548152906001019060200180831161023357829003601f168201915b505050505081526020016001820154815260200160028201805461027390610b2e565b80601f016020809104026020016040519081016040528092919081815260200182805461029f90610b2e565b80156102ec5780601f106102c1576101008083540402835291602001916102ec565b820191906000526020600020905b8154815290600101906020018083116102cf57829003601f168201915b5050505050815260200160038201548152602001600482015481526020016005820154815250509050919050565b60008054905090565b60006228206f90506000429050600083146103565782826103449190610c0b565b8161034f9190610c65565b9250610371565b6003826103639190610c0b565b8161036e9190610c65565b92505b42600360006002548152602001908152602001600020856040516103959190610ae8565b90815260200160405180910390206004018190555082600360006002548152602001908152602001600020856040516103ce9190610ae8565b908152602001604051809103902060050181905550600160008154809291906103f690610cbb565b919050555050505050565b6000600360006002548152602001908152602001600020856040516104269190610ae8565b9081526020016040518091039020600001805461044290610b2e565b905014610484576040517f08c379a000000000000000000000000000000000000000000000000000000000815260040161047b90610d4f565b60405180910390fd5b6040518060c00160405280848152602001838152602001828152602001428152602001600081526020016000815250600360006002548152602001908152602001600020856040516104d69190610ae8565b908152602001604051809103902060008201518160000190805190602001906105009291906105a6565b506020820151816001015560408201518160020190805190602001906105279291906105a6565b50606082015181600301556080820151816004015560a0820151816005015590505060008081548092919061055b90610cbb565b919050555050505050565b6000600154905090565b6040518060c001604052806060815260200160008152602001606081526020016000815260200160008152602001600081525090565b8280546105b290610b2e565b90600052602060002090601f0160209004810192826105d4576000855561061b565b82601f106105ed57805160ff191683800117855561061b565b8280016001018555821561061b579182015b8281111561061a5782518255916020019190600101906105ff565b5b509050610628919061062c565b5090565b5b8082111561064557600081600090555060010161062d565b5090565b6000604051905090565b600080fd5b600080fd5b600080fd5b600080fd5b6000601f19601f8301169050919050565b7f4e487b7100000000000000000000000000000000000000000000000000000000600052604160045260246000fd5b6106b082610667565b810181811067ffffffffffffffff821117156106cf576106ce610678565b5b80604052505050565b60006106e2610649565b90506106ee82826106a7565b919050565b600067ffffffffffffffff82111561070e5761070d610678565b5b61071782610667565b9050602081019050919050565b82818337600083830152505050565b6000610746610741846106f3565b6106d8565b90508281526020810184848401111561076257610761610662565b5b61076d848285610724565b509392505050565b600082601f83011261078a5761078961065d565b5b813561079a848260208601610733565b91505092915050565b6000602082840312156107b9576107b8610653565b5b600082013567ffffffffffffffff8111156107d7576107d6610658565b5b6107e384828501610775565b91505092915050565b600081519050919050565b600082825260208201905092915050565b60005b8381101561082657808201518184015260208101905061080b565b83811115610835576000848401525b50505050565b6000610846826107ec565b61085081856107f7565b9350610860818560208601610808565b61086981610667565b840191505092915050565b6000819050919050565b61088781610874565b82525050565b600060c08301600083015184820360008601526108aa828261083b565b91505060208301516108bf602086018261087e565b50604083015184820360408601526108d7828261083b565b91505060608301516108ec606086018261087e565b5060808301516108ff608086018261087e565b5060a083015161091260a086018261087e565b508091505092915050565b60006020820190508181036000830152610937818461088d565b905092915050565b61094881610874565b82525050565b6000602082019050610963600083018461093f565b92915050565b61097281610874565b811461097d57600080fd5b50565b60008135905061098f81610969565b92915050565b600080604083850312156109ac576109ab610653565b5b600083013567ffffffffffffffff8111156109ca576109c9610658565b5b6109d685828601610775565b92505060206109e785828601610980565b9150509250929050565b60008060008060808587031215610a0b57610a0a610653565b5b600085013567ffffffffffffffff811115610a2957610a28610658565b5b610a3587828801610775565b945050602085013567ffffffffffffffff811115610a5657610a55610658565b5b610a6287828801610775565b9350506040610a7387828801610980565b925050606085013567ffffffffffffffff811115610a9457610a93610658565b5b610aa087828801610775565b91505092959194509250565b600081905092915050565b6000610ac2826107ec565b610acc8185610aac565b9350610adc818560208601610808565b80840191505092915050565b6000610af48284610ab7565b915081905092915050565b7f4e487b7100000000000000000000000000000000000000000000000000000000600052602260045260246000fd5b60006002820490506001821680610b4657607f821691505b602082108103610b5957610b58610aff565b5b50919050565b600082825260208201905092915050565b7f75736572206e6f7420666f756e64000000000000000000000000000000000000600082015250565b6000610ba6600e83610b5f565b9150610bb182610b70565b602082019050919050565b60006020820190508181036000830152610bd581610b99565b9050919050565b7f4e487b7100000000000000000000000000000000000000000000000000000000600052601160045260246000fd5b6000610c1682610874565b9150610c2183610874565b9250817fffffffffffffffffffffffffffffffffffffffffffffffffffffffffffffffff0483118215151615610c5a57610c59610bdc565b5b828202905092915050565b6000610c7082610874565b9150610c7b83610874565b9250827fffffffffffffffffffffffffffffffffffffffffffffffffffffffffffffffff03821115610cb057610caf610bdc565b5b828201905092915050565b6000610cc682610874565b91507fffffffffffffffffffffffffffffffffffffffffffffffffffffffffffffffff8203610cf857610cf7610bdc565b5b600182019050919050565b7f70726f6475637420616c72656164792065786973747300000000000000000000600082015250565b6000610d39601683610b5f565b9150610d4482610d03565b602082019050919050565b60006020820190508181036000830152610d6881610d2c565b905091905056fea2646970667358221220c4a3583aceca1d1a09f2788e5d80499ae9867a1fc5f4e7b77cfc6103324d3b0564736f6c634300080e0033",
  "immutableReferences": {},
  "source": "// SPDX-License-Identifier: MIT\npragma solidity >=0.4.22 <0.9.0;\n\ncontract SimpleStorage{\n\nstruct data{\nstring name;\nuint mobile;\nstring email;\nuint manu_date;\nuint warranty_start;\nuint warranty_end;\n}\nuint private notsold;\nuint private sold;\nuint private year=2022;\nmapping(uint =>mapping(string=>data))private product;\n\n\n\n\nfunction get_total_unsold_product() public view returns(uint){\n\nreturn notsold;\n}\n\n\n\nfunction get_total_sold_product() public view returns(uint){\n\nreturn sold;\n}\n\n\n\nfunction set_new_product(string memory productid,string memory _name,uint _mobile, string memory _email) public {\n\nrequire(bytes(product[year][productid].name).length == 0 , \"product already exists\");\n\nproduct[year][productid]=data({name:_name,mobile:_mobile,email:_email,manu_date: block.timestamp,warranty_start:0 ,warranty_end:0 });\n\nnotsold++;\n}\n\n\nfunction set_warranty(string memory productid,uint warr_end) public  {\nuint month=2629743;\nuint warr_start=block.timestamp;\nif(warr_end!=0){\n    warr_end=warr_start+(month*warr_end);\n}else{\n    warr_end=warr_start+(month*3);\n\n}\nproduct[year][productid].warranty_start=block.timestamp;\nproduct[year][productid].warranty_end=warr_end;\nsold++;\n}\n\n\n\nfunction get_product_details(string memory id) external view returns(data memory) { \nrequire(bytes(product[year][id].name).length != 0 , \"user not found\");\n return product[year][id];\n\n}\n\n\n\n\n}\n",
  "sourcePath": "D:\\all projects\\react project\\truffle\\contracts\\SimpleStorage.sol",
  "compiler": {
    "name": "solc",
    "version": "0.8.14+commit.80d49f37.Emscripten.clang"
  },
  "schemaVersion": "3.4.9",
  "updatedAt": "2022-08-22T07:19:11.742Z",
  "networkType": "ethereum",
  "devdoc": {
    "kind": "dev",
    "methods": {},
    "version": 1
  },
  "userdoc": {
    "kind": "user",
    "methods": {},
    "version": 1
  }
}