{
  "contractName": "SimpleStorage",
  "abi": [
    {
      "inputs": [],
      "name": "get_total_unsold_product",
      "outputs": [
        {
          "internalType": "uint256",
          "name": "",
          "type": "uint256"
        }
      ],
      "stateMutability": "view",
      "type": "function"
    },
    {
      "inputs": [
        {
          "internalType": "uint256",
          "name": "_unsold",
          "type": "uint256"
        }
      ],
      "name": "set_total_unsold_product",
      "outputs": [],
      "stateMutability": "nonpayable",
      "type": "function"
    },
    {
      "inputs": [
        {
          "internalType": "uint256",
          "name": "_sold",
          "type": "uint256"
        }
      ],
      "name": "set_total_sold_product",
      "outputs": [],
      "stateMutability": "nonpayable",
      "type": "function"
    },
    {
      "inputs": [],
      "name": "get_total_sold_product",
      "outputs": [
        {
          "internalType": "uint256",
          "name": "",
          "type": "uint256"
        }
      ],
      "stateMutability": "view",
      "type": "function"
    },
    {
      "inputs": [
        {
          "internalType": "uint256",
          "name": "productid",
          "type": "uint256"
        },
        {
          "internalType": "string",
          "name": "_name",
          "type": "string"
        },
        {
          "internalType": "string",
          "name": "Rated_Current",
          "type": "string"
        },
        {
          "internalType": "string",
          "name": "switch_operation",
          "type": "string"
        },
        {
          "internalType": "uint256",
          "name": "warr_period",
          "type": "uint256"
        },
        {
          "internalType": "string",
          "name": "color",
          "type": "string"
        },
        {
          "internalType": "string",
          "name": "module_size",
          "type": "string"
        },
        {
          "internalType": "string",
          "name": "material",
          "type": "string"
        },
        {
          "internalType": "string",
          "name": "coo",
          "type": "string"
        }
      ],
      "name": "set_new_product",
      "outputs": [],
      "stateMutability": "nonpayable",
      "type": "function"
    },
    {
      "inputs": [
        {
          "internalType": "uint256",
          "name": "to",
          "type": "uint256"
        },
        {
          "internalType": "uint256",
          "name": "productid",
          "type": "uint256"
        },
        {
          "internalType": "string",
          "name": "_name",
          "type": "string"
        },
        {
          "internalType": "string",
          "name": "Rated_Current",
          "type": "string"
        },
        {
          "internalType": "string",
          "name": "switch_operation",
          "type": "string"
        },
        {
          "internalType": "uint256",
          "name": "warr_period",
          "type": "uint256"
        },
        {
          "internalType": "string",
          "name": "color",
          "type": "string"
        },
        {
          "internalType": "string",
          "name": "module_size",
          "type": "string"
        },
        {
          "internalType": "string",
          "name": "material",
          "type": "string"
        },
        {
          "internalType": "string",
          "name": "coo",
          "type": "string"
        }
      ],
      "name": "set_newbatch_product",
      "outputs": [],
      "stateMutability": "nonpayable",
      "type": "function"
    },
    {
      "inputs": [],
      "name": "getdata",
      "outputs": [],
      "stateMutability": "nonpayable",
      "type": "function"
    },
    {
      "inputs": [],
      "name": "gettdata",
      "outputs": [
        {
          "internalType": "uint256[]",
          "name": "",
          "type": "uint256[]"
        },
        {
          "internalType": "uint256[]",
          "name": "",
          "type": "uint256[]"
        }
      ],
      "stateMutability": "view",
      "type": "function"
    },
    {
      "inputs": [
        {
          "internalType": "uint256",
          "name": "num",
          "type": "uint256"
        }
      ],
      "name": "getttdata",
      "outputs": [
        {
          "internalType": "uint256",
          "name": "",
          "type": "uint256"
        },
        {
          "internalType": "uint256",
          "name": "",
          "type": "uint256"
        }
      ],
      "stateMutability": "view",
      "type": "function"
    },
    {
      "inputs": [
        {
          "internalType": "uint256",
          "name": "productid",
          "type": "uint256"
        }
      ],
      "name": "set_warranty",
      "outputs": [],
      "stateMutability": "nonpayable",
      "type": "function"
    },
    {
      "inputs": [
        {
          "internalType": "uint256",
          "name": "id",
          "type": "uint256"
        }
      ],
      "name": "get_product_details",
      "outputs": [
        {
          "components": [
            {
              "internalType": "string",
              "name": "brand",
              "type": "string"
            },
            {
              "internalType": "string",
              "name": "Rated_Current",
              "type": "string"
            },
            {
              "internalType": "string",
              "name": "Switch_Operation",
              "type": "string"
            },
            {
              "internalType": "string",
              "name": "Module_Size",
              "type": "string"
            },
            {
              "internalType": "string",
              "name": "material",
              "type": "string"
            },
            {
              "internalType": "string",
              "name": "Country_of_Origin",
              "type": "string"
            },
            {
              "internalType": "string",
              "name": "color",
              "type": "string"
            },
            {
              "internalType": "uint256",
              "name": "manu_date",
              "type": "uint256"
            },
            {
              "internalType": "uint256",
              "name": "warranty_start",
              "type": "uint256"
            },
            {
              "internalType": "uint256",
              "name": "warranty_end",
              "type": "uint256"
            },
            {
              "internalType": "uint256",
              "name": "warr_period",
              "type": "uint256"
            }
          ],
          "internalType": "struct SimpleStorage.data",
          "name": "",
          "type": "tuple"
        }
      ],
      "stateMutability": "view",
      "type": "function"
    }
  ],
  "bytecode": "0x60806040526107e660045534801561001657600080fd5b50611d85806100266000396000f3fe608060405234801561001057600080fd5b50600436106100a95760003560e01c80638d961d33116100715780638d961d331461013c578063b48cd9ad1461016d578063d03f367d1461018b578063d34fa4a2146101aa578063e69dac34146101c8578063fe8093e7146101e4576100a9565b806330153c2d146100ae5780634a61dca8146100ca5780634fa10cfc146100e65780635984af98146100f05780636d920f541461010c575b600080fd5b6100c860048036038101906100c39190611320565b610200565b005b6100e460048036038101906100df91906114ae565b610507565b005b6100ee61051e565b005b61010a600480360381019061010591906114db565b61053b565b005b610126600480360381019061012191906114ae565b610892565b604051610133919061182e565b60405180910390f35b610156600480360381019061015191906114ae565b610d71565b60405161016492919061185f565b60405180910390f35b610175610da2565b6040516101829190611888565b60405180910390f35b610193610dac565b6040516101a1929190611952565b60405180910390f35b6101b2610e5f565b6040516101bf9190611888565b60405180910390f35b6101e260048036038101906101dd91906114ae565b610e69565b005b6101fe60048036038101906101f991906114ae565b610e80565b005b600060056000600454815260200190815260200160002060008b81526020019081526020016000206000018054610236906119b8565b905014610278576040517f08c379a000000000000000000000000000000000000000000000000000000000815260040161026f90611a46565b60405180910390fd5b8760056000600454815260200190815260200160002060008b815260200190815260200160002060000190805190602001906102b5929190611072565b508660056000600454815260200190815260200160002060008b815260200190815260200160002060010190805190602001906102f3929190611072565b508560056000600454815260200190815260200160002060008b81526020019081526020016000206002019080519060200190610331929190611072565b504260056000600454815260200190815260200160002060008b815260200190815260200160002060070181905550600060056000600454815260200190815260200160002060008b815260200190815260200160002060080181905550600060056000600454815260200190815260200160002060008b8152602001908152602001600020600901819055508460056000600454815260200190815260200160002060008b8152602001908152602001600020600a01819055508360056000600454815260200190815260200160002060008b81526020019081526020016000206006019080519060200190610429929190611072565b508260056000600454815260200190815260200160002060008b81526020019081526020016000206003019080519060200190610467929190611072565b508160056000600454815260200190815260200160002060008b815260200190815260200160002060040190805190602001906104a5929190611072565b508060056000600454815260200190815260200160002060008b815260200190815260200160002060050190805190602001906104e3929190611072565b50600260008154809291906104f790611a95565b9190505550505050505050505050565b806003546105159190611add565b60038190555050565b60008061052b91906110f8565b6001600061053991906110f8565b565b6000600190505b8a811161088557600060056000600454815260200190815260200160002060008c815260200190815260200160002060070154146105b65760008a908060018154018082558091505060019003906000526020600020016000909190919091505589806105ae90611a95565b9a5050610872565b8860056000600454815260200190815260200160002060008c815260200190815260200160002060000190805190602001906105f3929190611072565b508760056000600454815260200190815260200160002060008c81526020019081526020016000206001019080519060200190610631929190611072565b508660056000600454815260200190815260200160002060008c8152602001908152602001600020600201908051906020019061066f929190611072565b504260056000600454815260200190815260200160002060008c815260200190815260200160002060070181905550600060056000600454815260200190815260200160002060008c815260200190815260200160002060080181905550600060056000600454815260200190815260200160002060008c8152602001908152602001600020600901819055508560056000600454815260200190815260200160002060008c8152602001908152602001600020600a01819055508460056000600454815260200190815260200160002060008c81526020019081526020016000206006019080519060200190610767929190611072565b508360056000600454815260200190815260200160002060008c815260200190815260200160002060030190805190602001906107a5929190611072565b508260056000600454815260200190815260200160002060008c815260200190815260200160002060040190805190602001906107e3929190611072565b508160056000600454815260200190815260200160002060008c81526020019081526020016000206005019080519060200190610821929190611072565b506002600081548092919061083590611a95565b919050555060018a9080600181540180825580915050600190039060005260206000200160009091909190915055898061086e90611a95565b9a50505b808061087d90611a95565b915050610542565b5050505050505050505050565b61089a611119565b6000600560006004548152602001908152602001600020600084815260200190815260200160002060000180546108d0906119b8565b905003610912576040517f08c379a000000000000000000000000000000000000000000000000000000000815260040161090990611b7f565b60405180910390fd5b600560006004548152602001908152602001600020600083815260200190815260200160002060405180610160016040529081600082018054610954906119b8565b80601f0160208091040260200160405190810160405280929190818152602001828054610980906119b8565b80156109cd5780601f106109a2576101008083540402835291602001916109cd565b820191906000526020600020905b8154815290600101906020018083116109b057829003601f168201915b505050505081526020016001820180546109e6906119b8565b80601f0160208091040260200160405190810160405280929190818152602001828054610a12906119b8565b8015610a5f5780601f10610a3457610100808354040283529160200191610a5f565b820191906000526020600020905b815481529060010190602001808311610a4257829003601f168201915b50505050508152602001600282018054610a78906119b8565b80601f0160208091040260200160405190810160405280929190818152602001828054610aa4906119b8565b8015610af15780601f10610ac657610100808354040283529160200191610af1565b820191906000526020600020905b815481529060010190602001808311610ad457829003601f168201915b50505050508152602001600382018054610b0a906119b8565b80601f0160208091040260200160405190810160405280929190818152602001828054610b36906119b8565b8015610b835780601f10610b5857610100808354040283529160200191610b83565b820191906000526020600020905b815481529060010190602001808311610b6657829003601f168201915b50505050508152602001600482018054610b9c906119b8565b80601f0160208091040260200160405190810160405280929190818152602001828054610bc8906119b8565b8015610c155780601f10610bea57610100808354040283529160200191610c15565b820191906000526020600020905b815481529060010190602001808311610bf857829003601f168201915b50505050508152602001600582018054610c2e906119b8565b80601f0160208091040260200160405190810160405280929190818152602001828054610c5a906119b8565b8015610ca75780601f10610c7c57610100808354040283529160200191610ca7565b820191906000526020600020905b815481529060010190602001808311610c8a57829003601f168201915b50505050508152602001600682018054610cc0906119b8565b80601f0160208091040260200160405190810160405280929190818152602001828054610cec906119b8565b8015610d395780601f10610d0e57610100808354040283529160200191610d39565b820191906000526020600020905b815481529060010190602001808311610d1c57829003601f168201915b50505050508152602001600782015481526020016008820154815260200160098201548152602001600a820154815250509050919050565b60008060018381548110610d8857610d87611b9f565b5b906000526020600020015460018054905091509150915091565b6000600254905090565b6060806000600181805480602002602001604051908101604052809291908181526020018280548015610dfe57602002820191906000526020600020905b815481526020019060010190808311610dea575b5050505050915080805480602002602001604051908101604052809291908181526020018280548015610e5057602002820191906000526020600020905b815481526020019060010190808311610e3c575b50505050509050915091509091565b6000600354905090565b80600254610e779190611add565b60028190555050565b600060056000600454815260200190815260200160002060008381526020019081526020016000206000018054610eb6906119b8565b905003610ef8576040517f08c379a0000000000000000000000000000000000000000000000000000000008152600401610eef90611c1a565b60405180910390fd5b600060056000600454815260200190815260200160002060008381526020019081526020016000206008015414610f64576040517f08c379a0000000000000000000000000000000000000000000000000000000008152600401610f5b90611cac565b60405180910390fd5b60006228206f9050600042905060006005600060045481526020019081526020016000206000858152602001908152602001600020600a0154905060008114610fc5578083610fb39190611ccc565b82610fbe9190611add565b9050610fe0565b600383610fd29190611ccc565b82610fdd9190611add565b90505b42600560006004548152602001908152602001600020600086815260200190815260200160002060080181905550806005600060045481526020019081526020016000206000868152602001908152602001600020600901819055506003600081548092919061104f90611a95565b91905055506002600081548092919061106790611d26565b919050555050505050565b82805461107e906119b8565b90600052602060002090601f0160209004810192826110a057600085556110e7565b82601f106110b957805160ff19168380011785556110e7565b828001600101855582156110e7579182015b828111156110e65782518255916020019190600101906110cb565b5b5090506110f49190611173565b5090565b50805460008255906000526020600020908101906111169190611173565b50565b60405180610160016040528060608152602001606081526020016060815260200160608152602001606081526020016060815260200160608152602001600081526020016000815260200160008152602001600081525090565b5b8082111561118c576000816000905550600101611174565b5090565b6000604051905090565b600080fd5b600080fd5b6000819050919050565b6111b7816111a4565b81146111c257600080fd5b50565b6000813590506111d4816111ae565b92915050565b600080fd5b600080fd5b6000601f19601f8301169050919050565b7f4e487b7100000000000000000000000000000000000000000000000000000000600052604160045260246000fd5b61122d826111e4565b810181811067ffffffffffffffff8211171561124c5761124b6111f5565b5b80604052505050565b600061125f611190565b905061126b8282611224565b919050565b600067ffffffffffffffff82111561128b5761128a6111f5565b5b611294826111e4565b9050602081019050919050565b82818337600083830152505050565b60006112c36112be84611270565b611255565b9050828152602081018484840111156112df576112de6111df565b5b6112ea8482856112a1565b509392505050565b600082601f830112611307576113066111da565b5b81356113178482602086016112b0565b91505092915050565b60008060008060008060008060006101208a8c0312156113435761134261119a565b5b60006113518c828d016111c5565b99505060208a013567ffffffffffffffff8111156113725761137161119f565b5b61137e8c828d016112f2565b98505060408a013567ffffffffffffffff81111561139f5761139e61119f565b5b6113ab8c828d016112f2565b97505060608a013567ffffffffffffffff8111156113cc576113cb61119f565b5b6113d88c828d016112f2565b96505060806113e98c828d016111c5565b95505060a08a013567ffffffffffffffff81111561140a5761140961119f565b5b6114168c828d016112f2565b94505060c08a013567ffffffffffffffff8111156114375761143661119f565b5b6114438c828d016112f2565b93505060e08a013567ffffffffffffffff8111156114645761146361119f565b5b6114708c828d016112f2565b9250506101008a013567ffffffffffffffff8111156114925761149161119f565b5b61149e8c828d016112f2565b9150509295985092959850929598565b6000602082840312156114c4576114c361119a565b5b60006114d2848285016111c5565b91505092915050565b6000806000806000806000806000806101408b8d0312156114ff576114fe61119a565b5b600061150d8d828e016111c5565b9a5050602061151e8d828e016111c5565b99505060408b013567ffffffffffffffff81111561153f5761153e61119f565b5b61154b8d828e016112f2565b98505060608b013567ffffffffffffffff81111561156c5761156b61119f565b5b6115788d828e016112f2565b97505060808b013567ffffffffffffffff8111156115995761159861119f565b5b6115a58d828e016112f2565b96505060a06115b68d828e016111c5565b95505060c08b013567ffffffffffffffff8111156115d7576115d661119f565b5b6115e38d828e016112f2565b94505060e08b013567ffffffffffffffff8111156116045761160361119f565b5b6116108d828e016112f2565b9350506101008b013567ffffffffffffffff8111156116325761163161119f565b5b61163e8d828e016112f2565b9250506101208b013567ffffffffffffffff8111156116605761165f61119f565b5b61166c8d828e016112f2565b9150509295989b9194979a5092959850565b600081519050919050565b600082825260208201905092915050565b60005b838110156116b857808201518184015260208101905061169d565b838111156116c7576000848401525b50505050565b60006116d88261167e565b6116e28185611689565b93506116f281856020860161169a565b6116fb816111e4565b840191505092915050565b61170f816111a4565b82525050565b600061016083016000830151848203600086015261173382826116cd565b9150506020830151848203602086015261174d82826116cd565b9150506040830151848203604086015261176782826116cd565b9150506060830151848203606086015261178182826116cd565b9150506080830151848203608086015261179b82826116cd565b91505060a083015184820360a08601526117b582826116cd565b91505060c083015184820360c08601526117cf82826116cd565b91505060e08301516117e460e0860182611706565b506101008301516117f9610100860182611706565b5061012083015161180e610120860182611706565b50610140830151611823610140860182611706565b508091505092915050565b600060208201905081810360008301526118488184611715565b905092915050565b611859816111a4565b82525050565b60006040820190506118746000830185611850565b6118816020830184611850565b9392505050565b600060208201905061189d6000830184611850565b92915050565b600081519050919050565b600082825260208201905092915050565b6000819050602082019050919050565b60006118db8383611706565b60208301905092915050565b6000602082019050919050565b60006118ff826118a3565b61190981856118ae565b9350611914836118bf565b8060005b8381101561194557815161192c88826118cf565b9750611937836118e7565b925050600181019050611918565b5085935050505092915050565b6000604082019050818103600083015261196c81856118f4565b9050818103602083015261198081846118f4565b90509392505050565b7f4e487b7100000000000000000000000000000000000000000000000000000000600052602260045260246000fd5b600060028204905060018216806119d057607f821691505b6020821081036119e3576119e2611989565b5b50919050565b600082825260208201905092915050565b7f70726f6475637420616c72656164792065786973747300000000000000000000600082015250565b6000611a306016836119e9565b9150611a3b826119fa565b602082019050919050565b60006020820190508181036000830152611a5f81611a23565b9050919050565b7f4e487b7100000000000000000000000000000000000000000000000000000000600052601160045260246000fd5b6000611aa0826111a4565b91507fffffffffffffffffffffffffffffffffffffffffffffffffffffffffffffffff8203611ad257611ad1611a66565b5b600182019050919050565b6000611ae8826111a4565b9150611af3836111a4565b9250827fffffffffffffffffffffffffffffffffffffffffffffffffffffffffffffffff03821115611b2857611b27611a66565b5b828201905092915050565b7f75736572206e6f7420666f756e64000000000000000000000000000000000000600082015250565b6000611b69600e836119e9565b9150611b7482611b33565b602082019050919050565b60006020820190508181036000830152611b9881611b5c565b9050919050565b7f4e487b7100000000000000000000000000000000000000000000000000000000600052603260045260246000fd5b7f70726f64756374204e6f74206578697374730000000000000000000000000000600082015250565b6000611c046012836119e9565b9150611c0f82611bce565b602082019050919050565b60006020820190508181036000830152611c3381611bf7565b9050919050565b7f70726f647563742057617272616e747920616c7265616479205265676973746560008201527f7265640000000000000000000000000000000000000000000000000000000000602082015250565b6000611c966023836119e9565b9150611ca182611c3a565b604082019050919050565b60006020820190508181036000830152611cc581611c89565b9050919050565b6000611cd7826111a4565b9150611ce2836111a4565b9250817fffffffffffffffffffffffffffffffffffffffffffffffffffffffffffffffff0483118215151615611d1b57611d1a611a66565b5b828202905092915050565b6000611d31826111a4565b915060008203611d4457611d43611a66565b5b60018203905091905056fea26469706673582212209ed865742cecd2fa4017f54c449f01226b56f3291384b496fa85056125e6db1564736f6c634300080e0033",
  "immutableReferences": {},
  "source": "// SPDX-License-Identifier: MIT\npragma solidity >=0.4.22 <0.9.0;\n\ncontract SimpleStorage{\nuint[] already_exist;\nuint[] done;\nstruct data{\nstring brand;\nstring Rated_Current;\nstring Switch_Operation;\nstring Module_Size;\nstring material;\nstring Country_of_Origin;\nstring color;\nuint manu_date;\nuint warranty_start;\nuint warranty_end;\nuint warr_period;\n}\n\nuint private notsold;\nuint private sold;\nuint private year=2022;\nmapping(uint =>mapping(uint=>data))private product;\n\n\n\n\nfunction get_total_unsold_product() public view returns(uint){\n\nreturn notsold;\n}\n\nfunction set_total_unsold_product(uint _unsold) public {\n\nnotsold = notsold +  _unsold;\n}\nfunction set_total_sold_product(uint _sold) public {\n\nsold = sold +  _sold;\n}\n\n\n\nfunction get_total_sold_product() public view returns(uint){\n\nreturn sold;\n}\n\n\n\nfunction set_new_product(uint productid,string memory _name,string memory Rated_Current, string memory switch_operation,uint warr_period,string memory color ,string memory module_size,string memory material,string memory coo) public{\n\nrequire(bytes(product[year][productid].brand).length == 0 , \"product already exists\");\nproduct[year][productid].brand=_name;\nproduct[year][productid].Rated_Current=Rated_Current;\nproduct[year][productid].Switch_Operation=switch_operation;\nproduct[year][productid].manu_date=block.timestamp;\nproduct[year][productid].warranty_start=0;\nproduct[year][productid].warranty_end=0;\nproduct[year][productid].warr_period=warr_period;\nproduct[year][productid].color=color;\nproduct[year][productid].Module_Size=module_size;\nproduct[year][productid].material=material;\nproduct[year][productid].Country_of_Origin=coo;\n\n// product[year][productid]=data({brand:_name,Rated_Current:Rated_Current,Switch_Operation:switch_operation,manu_date: block.timestamp,warranty_start:0 ,warranty_end:0,warr_period:warr_period,color:color,weight:weight,length:length, Module_Size: module_size,material: material,Country_of_Origin: coo });\n\nnotsold++;\n}\n\nfunction set_newbatch_product(uint to,uint productid,string memory _name,string memory Rated_Current, string memory switch_operation,uint warr_period,string memory color,string memory module_size,string memory material,string memory coo) public{\n\nfor(uint i=1;i<=to;i++){\n    if((product[year][productid].manu_date) != 0 ){\n         already_exist.push(productid);\n         productid++;\n        continue;\n    }else{ \n// require(bytes(product[year][productid].brand).length == 0 ,\"product already exists\");\nproduct[year][productid].brand=_name;\nproduct[year][productid].Rated_Current=Rated_Current;\nproduct[year][productid].Switch_Operation=switch_operation;\nproduct[year][productid].manu_date=block.timestamp;\nproduct[year][productid].warranty_start=0;\nproduct[year][productid].warranty_end=0;\nproduct[year][productid].warr_period=warr_period;\nproduct[year][productid].color=color;\nproduct[year][productid].Module_Size=module_size;\nproduct[year][productid].material=material;\nproduct[year][productid].Country_of_Origin=coo;\n\nnotsold++;\ndone.push(productid);\nproductid++;\n    }\n}\n\n}\nfunction getdata()public {\n    delete already_exist;\n    delete done;\n}\nfunction gettdata()public view returns(uint[] memory,uint[] memory){\n    return(already_exist,done);\n}\nfunction getttdata(uint num) public view returns(uint,uint){\n    return(done[num],done.length);\n}\n\nfunction set_warranty(uint productid) public  {\n     require(bytes(product[year][productid].brand).length != 0 , \"product Not exists\");\n    require((product[year][productid].warranty_start) == 0 , \"product Warranty already Registered\");\nuint month=2629743;\nuint warr_start=block.timestamp;\nuint warr_end=product[year][productid].warr_period;\nif(warr_end!=0){\n    warr_end=warr_start+(month*warr_end);\n}else{\n    warr_end=warr_start+(month*3);\n}\nproduct[year][productid].warranty_start=block.timestamp;\nproduct[year][productid].warranty_end=warr_end;\nsold++;\nnotsold--;\n}\n\n\n\nfunction get_product_details(uint id) external view returns(data memory) { \nrequire(bytes(product[year][id].brand).length != 0 , \"user not found\");\n return product[year][id];\n\n}\n\n\n\n\n}\n",
  "sourcePath": "D:\\rushi projects\\New folder\\newuiweb3\\smart contract\\truffle\\contracts\\SimpleStorage.sol",
  "compiler": {
    "name": "solc",
    "version": "0.8.14+commit.80d49f37.Emscripten.clang"
  },
  "schemaVersion": "3.4.9",
  "updatedAt": "2022-09-24T05:14:19.180Z",
  "devdoc": {
    "kind": "dev",
    "methods": {},
    "version": 1
  },
  "userdoc": {
    "kind": "user",
    "methods": {},
    "version": 1
  }
}